{
  "_format": "hh-sol-artifact-1",
  "contractName": "JulswapReferral",
  "sourceName": "contracts/JulswapReferral.sol",
  "abi": [
    {
      "inputs": [
        {
          "internalType": "address",
          "name": "_default",
          "type": "address"
        }
      ],
      "stateMutability": "nonpayable",
      "type": "constructor"
    },
    {
      "anonymous": false,
      "inputs": [
        {
          "indexed": true,
          "internalType": "address",
          "name": "previousOwner",
          "type": "address"
        },
        {
          "indexed": true,
          "internalType": "address",
          "name": "newOwner",
          "type": "address"
        }
      ],
      "name": "OwnershipTransferred",
      "type": "event"
    },
    {
      "anonymous": false,
      "inputs": [
        {
          "indexed": true,
          "internalType": "address",
          "name": "user",
          "type": "address"
        },
        {
          "indexed": true,
          "internalType": "address",
          "name": "referrer",
          "type": "address"
        }
      ],
      "name": "Registered",
      "type": "event"
    },
    {
      "anonymous": false,
      "inputs": [
        {
          "indexed": true,
          "internalType": "address",
          "name": "setter",
          "type": "address"
        }
      ],
      "name": "SetterAdded",
      "type": "event"
    },
    {
      "anonymous": false,
      "inputs": [
        {
          "indexed": true,
          "internalType": "address",
          "name": "setter",
          "type": "address"
        }
      ],
      "name": "SetterRemoved",
      "type": "event"
    },
    {
      "anonymous": false,
      "inputs": [
        {
          "indexed": true,
          "internalType": "address",
          "name": "user",
          "type": "address"
        },
        {
          "indexed": true,
          "internalType": "address",
          "name": "referrer",
          "type": "address"
        },
        {
          "indexed": true,
          "internalType": "address",
          "name": "token",
          "type": "address"
        },
        {
          "indexed": false,
          "internalType": "uint256",
          "name": "amount",
          "type": "uint256"
        }
      ],
      "name": "SwapRecorded",
      "type": "event"
    },
    {
      "inputs": [
        {
          "internalType": "address",
          "name": "setter",
          "type": "address"
        }
      ],
      "name": "addSetter",
      "outputs": [],
      "stateMutability": "nonpayable",
      "type": "function"
    },
    {
      "inputs": [
        {
          "internalType": "address",
          "name": "account",
          "type": "address"
        }
      ],
      "name": "checkSetter",
      "outputs": [
        {
          "internalType": "bool",
          "name": "",
          "type": "bool"
        }
      ],
      "stateMutability": "view",
      "type": "function"
    },
    {
      "inputs": [
        {
          "internalType": "address",
          "name": "token",
          "type": "address"
        }
      ],
      "name": "claim",
      "outputs": [],
      "stateMutability": "nonpayable",
      "type": "function"
    },
    {
      "inputs": [],
      "name": "factory",
      "outputs": [
        {
          "internalType": "address",
          "name": "",
          "type": "address"
        }
      ],
      "stateMutability": "view",
      "type": "function"
    },
    {
      "inputs": [
        {
          "internalType": "address",
          "name": "user",
          "type": "address"
        }
      ],
      "name": "getReferrer",
      "outputs": [
        {
          "internalType": "address",
          "name": "",
          "type": "address"
        }
      ],
      "stateMutability": "view",
      "type": "function"
    },
    {
      "inputs": [],
      "name": "owner",
      "outputs": [
        {
          "internalType": "address",
          "name": "",
          "type": "address"
        }
      ],
      "stateMutability": "view",
      "type": "function"
    },
    {
      "inputs": [
        {
          "internalType": "address",
          "name": "user",
          "type": "address"
        },
        {
          "internalType": "uint256",
          "name": "amount",
          "type": "uint256"
        }
      ],
      "name": "recordSwap",
      "outputs": [
        {
          "internalType": "bool",
          "name": "",
          "type": "bool"
        }
      ],
      "stateMutability": "payable",
      "type": "function"
    },
    {
      "inputs": [
        {
          "internalType": "address",
          "name": "token",
          "type": "address"
        },
        {
          "internalType": "address",
          "name": "referrer",
          "type": "address"
        }
      ],
      "name": "referrerReward",
      "outputs": [
        {
          "internalType": "uint256",
          "name": "total",
          "type": "uint256"
        },
        {
          "internalType": "uint256",
          "name": "reward",
          "type": "uint256"
        }
      ],
      "stateMutability": "view",
      "type": "function"
    },
    {
      "inputs": [
        {
          "internalType": "address",
          "name": "user",
          "type": "address"
        },
        {
          "internalType": "address",
          "name": "referrer",
          "type": "address"
        }
      ],
      "name": "register",
      "outputs": [
        {
          "internalType": "bool",
          "name": "",
          "type": "bool"
        }
      ],
      "stateMutability": "nonpayable",
      "type": "function"
    },
    {
      "inputs": [
        {
          "internalType": "address",
          "name": "setter",
          "type": "address"
        }
      ],
      "name": "removeSetter",
      "outputs": [],
      "stateMutability": "nonpayable",
      "type": "function"
    },
    {
      "inputs": [],
      "name": "renounceOwnership",
      "outputs": [],
      "stateMutability": "nonpayable",
      "type": "function"
    },
    {
      "inputs": [
        {
          "internalType": "address",
          "name": "_default",
          "type": "address"
        }
      ],
      "name": "setDefault",
      "outputs": [],
      "stateMutability": "nonpayable",
      "type": "function"
    },
    {
      "inputs": [
        {
          "internalType": "address",
          "name": "_factory",
          "type": "address"
        }
      ],
      "name": "setFactory",
      "outputs": [],
      "stateMutability": "nonpayable",
      "type": "function"
    },
    {
      "inputs": [
        {
          "internalType": "address",
          "name": "newOwner",
          "type": "address"
        }
      ],
      "name": "transferOwnership",
      "outputs": [],
      "stateMutability": "nonpayable",
      "type": "function"
    }
  ],
  "bytecode": "0x608060405234801561001057600080fd5b506040516110103803806110108339818101604052602081101561003357600080fd5b5051600061003f6100cd565b600080546001600160a01b0319166001600160a01b0383169081178255604051929350917f8be0079c531659141344cd1fd0a4f28419497f9722a3daafe3b4186f6b6457e0908290a3506001808055336000908152600260205260409020805460ff19169091179055600780546001600160a01b0319166001600160a01b03929092169190911790556100d1565b3390565b610f30806100e06000396000f3fe6080604052600436106100dd5760003560e01c8063715018a61161007f578063aa67735411610059578063aa677354146102f0578063c45a01551461032b578063e823d5cf14610340578063f2fde38b14610373576100dd565b8063715018a61461029357806375491d76146102a85780638da5cb5b146102db576100dd565b80634a9fefc7116100bb5780634a9fefc7146101ab5780635793ed80146101fa5780635bb478081461022d5780636666684614610260576100dd565b806309680135146100e25780631e83409a146101225780633e4c4b3114610157575b600080fd5b61010e600480360360408110156100f857600080fd5b506001600160a01b0381351690602001356103a6565b604080519115158252519081900360200190f35b34801561012e57600080fd5b506101556004803603602081101561014557600080fd5b50356001600160a01b0316610599565b005b34801561016357600080fd5b506101926004803603604081101561017a57600080fd5b506001600160a01b03813581169160200135166106ae565b6040805192835260208301919091528051918290030190f35b3480156101b757600080fd5b506101de600480360360208110156101ce57600080fd5b50356001600160a01b03166106e1565b604080516001600160a01b039092168252519081900360200190f35b34801561020657600080fd5b506101556004803603602081101561021d57600080fd5b50356001600160a01b03166106ff565b34801561023957600080fd5b506101556004803603602081101561025057600080fd5b50356001600160a01b03166107d8565b34801561026c57600080fd5b5061010e6004803603602081101561028357600080fd5b50356001600160a01b031661085c565b34801561029f57600080fd5b5061015561087a565b3480156102b457600080fd5b50610155600480360360208110156102cb57600080fd5b50356001600160a01b0316610926565b3480156102e757600080fd5b506101de6109fc565b3480156102fc57600080fd5b5061010e6004803603604081101561031357600080fd5b506001600160a01b0381358116916020013516610a0b565b34801561033757600080fd5b506101de610aeb565b34801561034c57600080fd5b506101556004803603602081101561036357600080fd5b50356001600160a01b0316610afa565b34801561037f57600080fd5b506101556004803603602081101561039657600080fd5b50356001600160a01b0316610b7e565b3360009081526002602052604081205460ff166103f45760405162461bcd60e51b8152600401808060200182810382526029815260200180610e886029913960400191505060405180910390fd5b6001600160a01b038084166000908152600360209081526040808320543380855260049093529220549092919091169061042e9085610c80565b6001600160a01b038084166000908152600460205260409020919091558116156104ec576001600160a01b038083166000908152600560209081526040808320938516835292905220546104829085610c80565b6001600160a01b038084166000818152600560209081526040808320878616808552908352928190209590955584518981529451929491938a16927f5767e3e2d8ec8cf1f63bf4c5780898814873d45102742960e4ed697f12e55dba9281900390910190a461058c565b6001600160a01b0380831660009081526005602090815260408083206007549094168352929052205461051f9085610c80565b6001600160a01b038084166000818152600560209081526040808320600780548716855290835292819020959095559054845189815294519294908416938a16927f5767e3e2d8ec8cf1f63bf4c5780898814873d45102742960e4ed697f12e55dba929181900390910190a45b6001925050505b92915050565b600260015414156105f1576040805162461bcd60e51b815260206004820152601f60248201527f5265656e7472616e637947756172643a207265656e7472616e742063616c6c00604482015290519081900360640190fd5b60026001556001600160a01b03811660009081526005602090815260408083203384529091529020546106555760405162461bcd60e51b8152600401808060200182810382526024815260200180610e646024913960400191505060405180910390fd5b6001600160a01b038116600090815260056020908152604080832033808552925290912054610685918391610ccf565b6001600160a01b0316600090815260056020908152604080832033845290915281205560018055565b6001600160a01b039182166000908152600460209081526040808320546005835281842094909516835292905220549091565b6001600160a01b039081166000908152600360205260409020541690565b6107076109fc565b6001600160a01b0316336001600160a01b0316148061073057506006546001600160a01b031633145b61076b5760405162461bcd60e51b815260040180806020018281038252602a815260200180610ed1602a913960400191505060405180910390fd5b6001600160a01b03811660009081526002602052604090205460ff166107d5576001600160a01b038116600081815260026020526040808220805460ff19166001179055517f57a9d5e4a5fdb8c72a273458b4a46afd6cd3f548ab577908933e54f29fd70a959190a25b50565b6107e0610e39565b6001600160a01b03166107f16109fc565b6001600160a01b03161461083a576040805162461bcd60e51b81526020600482018190526024820152600080516020610eb1833981519152604482015290519081900360640190fd5b600680546001600160a01b0319166001600160a01b0392909216919091179055565b6001600160a01b031660009081526002602052604090205460ff1690565b610882610e39565b6001600160a01b03166108936109fc565b6001600160a01b0316146108dc576040805162461bcd60e51b81526020600482018190526024820152600080516020610eb1833981519152604482015290519081900360640190fd5b600080546040516001600160a01b03909116907f8be0079c531659141344cd1fd0a4f28419497f9722a3daafe3b4186f6b6457e0908390a3600080546001600160a01b0319169055565b61092e6109fc565b6001600160a01b0316336001600160a01b0316148061095757506006546001600160a01b031633145b6109925760405162461bcd60e51b815260040180806020018281038252602a815260200180610ed1602a913960400191505060405180910390fd5b6001600160a01b03811660009081526002602052604090205460ff16156107d5576001600160a01b038116600081815260026020526040808220805460ff19169055517fc8d3785717c78d9d2bcb51ff75163af9101a486cd4fb3b915fda11d3fe44e1549190a250565b6000546001600160a01b031690565b3360009081526002602052604081205460ff16610a595760405162461bcd60e51b8152600401808060200182810382526029815260200180610e886029913960400191505060405180910390fd5b6001600160a01b038216610a6f57506001610593565b6001600160a01b0383811660009081526003602052604090205416610ae2576001600160a01b0383811660008181526003602052604080822080546001600160a01b0319169487169485179055517f0a31ee9d46a828884b81003c8498156ea6aa15b9b54bdd0ef0b533d9eba57e559190a35b50600192915050565b6006546001600160a01b031681565b610b02610e39565b6001600160a01b0316610b136109fc565b6001600160a01b031614610b5c576040805162461bcd60e51b81526020600482018190526024820152600080516020610eb1833981519152604482015290519081900360640190fd5b600780546001600160a01b0319166001600160a01b0392909216919091179055565b610b86610e39565b6001600160a01b0316610b976109fc565b6001600160a01b031614610be0576040805162461bcd60e51b81526020600482018190526024820152600080516020610eb1833981519152604482015290519081900360640190fd5b6001600160a01b038116610c255760405162461bcd60e51b8152600401808060200182810382526026815260200180610e3e6026913960400191505060405180910390fd5b600080546040516001600160a01b03808516939216917f8be0079c531659141344cd1fd0a4f28419497f9722a3daafe3b4186f6b6457e091a3600080546001600160a01b0319166001600160a01b0392909216919091179055565b80820182811015610593576040805162461bcd60e51b815260206004820152601460248201527364732d6d6174682d6164642d6f766572666c6f7760601b604482015290519081900360640190fd5b604080516001600160a01b038481166024830152604480830185905283518084039091018152606490920183526020820180516001600160e01b031663a9059cbb60e01b178152925182516000946060949389169392918291908083835b60208310610d4c5780518252601f199092019160209182019101610d2d565b6001836020036101000a0380198251168184511680821785525050505050509050019150506000604051808303816000865af19150503d8060008114610dae576040519150601f19603f3d011682016040523d82523d6000602084013e610db3565b606091505b5091509150818015610de1575080511580610de15750808060200190516020811015610dde57600080fd5b50515b610e32576040805162461bcd60e51b815260206004820152601f60248201527f5472616e7366657248656c7065723a205452414e534645525f4641494c454400604482015290519081900360640190fd5b5050505050565b339056fe4f776e61626c653a206e6577206f776e657220697320746865207a65726f20616464726573734a756c73776170526566657272616c3a20494e53554646494349454e54205265776172644a756c73776170526566657272616c3a2063616c6c6572206973206e6f7420746865207365747465724f776e61626c653a2063616c6c6572206973206e6f7420746865206f776e65724a756c73776170526566657272616c3a2063616c6c6572206973206e6f742074686520666163746f7279a2646970667358221220d42dd88c2c154d4e6964fc7f7cf9a9d7929600560f257b828b77c300dd121b8164736f6c634300060c0033",
  "linkReferences": {},
  "deployedLinkReferences": {}
}