{
  "_format": "hh-sol-artifact-1",
  "contractName": "JulswapRouter",
  "sourceName": "contracts/JulswapRouter.sol",
  "abi": [
    {
      "inputs": [
        {
          "internalType": "address",
          "name": "_factory",
          "type": "address"
        },
        {
          "internalType": "address",
          "name": "_WETH",
          "type": "address"
        }
      ],
      "stateMutability": "nonpayable",
      "type": "constructor"
    },
    {
      "inputs": [],
      "name": "WETH",
      "outputs": [
        {
          "internalType": "address",
          "name": "",
          "type": "address"
        }
      ],
      "stateMutability": "view",
      "type": "function"
    },
    {
      "inputs": [
        {
          "internalType": "address",
          "name": "tokenA",
          "type": "address"
        },
        {
          "internalType": "address",
          "name": "tokenB",
          "type": "address"
        },
        {
          "internalType": "uint256",
          "name": "amountADesired",
          "type": "uint256"
        },
        {
          "internalType": "uint256",
          "name": "amountBDesired",
          "type": "uint256"
        },
        {
          "internalType": "uint256",
          "name": "amountAMin",
          "type": "uint256"
        },
        {
          "internalType": "uint256",
          "name": "amountBMin",
          "type": "uint256"
        },
        {
          "internalType": "address",
          "name": "to",
          "type": "address"
        },
        {
          "internalType": "uint256",
          "name": "deadline",
          "type": "uint256"
        },
        {
          "internalType": "address",
          "name": "referrer",
          "type": "address"
        }
      ],
      "name": "addLiquidity",
      "outputs": [
        {
          "internalType": "uint256",
          "name": "amountA",
          "type": "uint256"
        },
        {
          "internalType": "uint256",
          "name": "amountB",
          "type": "uint256"
        },
        {
          "internalType": "uint256",
          "name": "liquidity",
          "type": "uint256"
        }
      ],
      "stateMutability": "nonpayable",
      "type": "function"
    },
    {
      "inputs": [
        {
          "internalType": "address",
          "name": "token",
          "type": "address"
        },
        {
          "internalType": "uint256",
          "name": "amountTokenDesired",
          "type": "uint256"
        },
        {
          "internalType": "uint256",
          "name": "amountTokenMin",
          "type": "uint256"
        },
        {
          "internalType": "uint256",
          "name": "amountETHMin",
          "type": "uint256"
        },
        {
          "internalType": "address",
          "name": "to",
          "type": "address"
        },
        {
          "internalType": "uint256",
          "name": "deadline",
          "type": "uint256"
        },
        {
          "internalType": "address",
          "name": "referrer",
          "type": "address"
        }
      ],
      "name": "addLiquidityETH",
      "outputs": [
        {
          "internalType": "uint256",
          "name": "amountToken",
          "type": "uint256"
        },
        {
          "internalType": "uint256",
          "name": "amountETH",
          "type": "uint256"
        },
        {
          "internalType": "uint256",
          "name": "liquidity",
          "type": "uint256"
        }
      ],
      "stateMutability": "payable",
      "type": "function"
    },
    {
      "inputs": [],
      "name": "factory",
      "outputs": [
        {
          "internalType": "address",
          "name": "",
          "type": "address"
        }
      ],
      "stateMutability": "view",
      "type": "function"
    },
    {
      "inputs": [
        {
          "internalType": "uint256",
          "name": "amountOut",
          "type": "uint256"
        },
        {
          "internalType": "uint256",
          "name": "reserveIn",
          "type": "uint256"
        },
        {
          "internalType": "uint256",
          "name": "reserveOut",
          "type": "uint256"
        }
      ],
      "name": "getAmountIn",
      "outputs": [
        {
          "internalType": "uint256",
          "name": "amountIn",
          "type": "uint256"
        }
      ],
      "stateMutability": "pure",
      "type": "function"
    },
    {
      "inputs": [
        {
          "internalType": "uint256",
          "name": "amountIn",
          "type": "uint256"
        },
        {
          "internalType": "uint256",
          "name": "reserveIn",
          "type": "uint256"
        },
        {
          "internalType": "uint256",
          "name": "reserveOut",
          "type": "uint256"
        }
      ],
      "name": "getAmountOut",
      "outputs": [
        {
          "internalType": "uint256",
          "name": "amountOut",
          "type": "uint256"
        }
      ],
      "stateMutability": "pure",
      "type": "function"
    },
    {
      "inputs": [
        {
          "internalType": "uint256",
          "name": "amountOut",
          "type": "uint256"
        },
        {
          "internalType": "address[]",
          "name": "path",
          "type": "address[]"
        }
      ],
      "name": "getAmountsIn",
      "outputs": [
        {
          "internalType": "uint256[]",
          "name": "amounts",
          "type": "uint256[]"
        }
      ],
      "stateMutability": "view",
      "type": "function"
    },
    {
      "inputs": [
        {
          "internalType": "uint256",
          "name": "amountIn",
          "type": "uint256"
        },
        {
          "internalType": "address[]",
          "name": "path",
          "type": "address[]"
        }
      ],
      "name": "getAmountsOut",
      "outputs": [
        {
          "internalType": "uint256[]",
          "name": "amounts",
          "type": "uint256[]"
        }
      ],
      "stateMutability": "view",
      "type": "function"
    },
    {
      "inputs": [
        {
          "internalType": "uint256",
          "name": "amountA",
          "type": "uint256"
        },
        {
          "internalType": "uint256",
          "name": "reserveA",
          "type": "uint256"
        },
        {
          "internalType": "uint256",
          "name": "reserveB",
          "type": "uint256"
        }
      ],
      "name": "quote",
      "outputs": [
        {
          "internalType": "uint256",
          "name": "amountB",
          "type": "uint256"
        }
      ],
      "stateMutability": "pure",
      "type": "function"
    },
    {
      "inputs": [
        {
          "internalType": "address",
          "name": "tokenA",
          "type": "address"
        },
        {
          "internalType": "address",
          "name": "tokenB",
          "type": "address"
        },
        {
          "internalType": "uint256",
          "name": "liquidity",
          "type": "uint256"
        },
        {
          "internalType": "uint256",
          "name": "amountAMin",
          "type": "uint256"
        },
        {
          "internalType": "uint256",
          "name": "amountBMin",
          "type": "uint256"
        },
        {
          "internalType": "address",
          "name": "to",
          "type": "address"
        },
        {
          "internalType": "uint256",
          "name": "deadline",
          "type": "uint256"
        }
      ],
      "name": "removeLiquidity",
      "outputs": [
        {
          "internalType": "uint256",
          "name": "amountA",
          "type": "uint256"
        },
        {
          "internalType": "uint256",
          "name": "amountB",
          "type": "uint256"
        }
      ],
      "stateMutability": "nonpayable",
      "type": "function"
    },
    {
      "inputs": [
        {
          "internalType": "address",
          "name": "token",
          "type": "address"
        },
        {
          "internalType": "uint256",
          "name": "liquidity",
          "type": "uint256"
        },
        {
          "internalType": "uint256",
          "name": "amountTokenMin",
          "type": "uint256"
        },
        {
          "internalType": "uint256",
          "name": "amountETHMin",
          "type": "uint256"
        },
        {
          "internalType": "address",
          "name": "to",
          "type": "address"
        },
        {
          "internalType": "uint256",
          "name": "deadline",
          "type": "uint256"
        }
      ],
      "name": "removeLiquidityETH",
      "outputs": [
        {
          "internalType": "uint256",
          "name": "amountToken",
          "type": "uint256"
        },
        {
          "internalType": "uint256",
          "name": "amountETH",
          "type": "uint256"
        }
      ],
      "stateMutability": "nonpayable",
      "type": "function"
    },
    {
      "inputs": [
        {
          "internalType": "address",
          "name": "token",
          "type": "address"
        },
        {
          "internalType": "uint256",
          "name": "liquidity",
          "type": "uint256"
        },
        {
          "internalType": "uint256",
          "name": "amountTokenMin",
          "type": "uint256"
        },
        {
          "internalType": "uint256",
          "name": "amountETHMin",
          "type": "uint256"
        },
        {
          "internalType": "address",
          "name": "to",
          "type": "address"
        },
        {
          "internalType": "uint256",
          "name": "deadline",
          "type": "uint256"
        }
      ],
      "name": "removeLiquidityETHSupportingFeeOnTransferTokens",
      "outputs": [
        {
          "internalType": "uint256",
          "name": "amountETH",
          "type": "uint256"
        }
      ],
      "stateMutability": "nonpayable",
      "type": "function"
    },
    {
      "inputs": [
        {
          "internalType": "address",
          "name": "token",
          "type": "address"
        },
        {
          "internalType": "uint256",
          "name": "liquidity",
          "type": "uint256"
        },
        {
          "internalType": "uint256",
          "name": "amountTokenMin",
          "type": "uint256"
        },
        {
          "internalType": "uint256",
          "name": "amountETHMin",
          "type": "uint256"
        },
        {
          "internalType": "address",
          "name": "to",
          "type": "address"
        },
        {
          "internalType": "uint256",
          "name": "deadline",
          "type": "uint256"
        },
        {
          "internalType": "bool",
          "name": "approveMax",
          "type": "bool"
        },
        {
          "internalType": "uint8",
          "name": "v",
          "type": "uint8"
        },
        {
          "internalType": "bytes32",
          "name": "r",
          "type": "bytes32"
        },
        {
          "internalType": "bytes32",
          "name": "s",
          "type": "bytes32"
        }
      ],
      "name": "removeLiquidityETHWithPermit",
      "outputs": [
        {
          "internalType": "uint256",
          "name": "amountToken",
          "type": "uint256"
        },
        {
          "internalType": "uint256",
          "name": "amountETH",
          "type": "uint256"
        }
      ],
      "stateMutability": "nonpayable",
      "type": "function"
    },
    {
      "inputs": [
        {
          "internalType": "address",
          "name": "token",
          "type": "address"
        },
        {
          "internalType": "uint256",
          "name": "liquidity",
          "type": "uint256"
        },
        {
          "internalType": "uint256",
          "name": "amountTokenMin",
          "type": "uint256"
        },
        {
          "internalType": "uint256",
          "name": "amountETHMin",
          "type": "uint256"
        },
        {
          "internalType": "address",
          "name": "to",
          "type": "address"
        },
        {
          "internalType": "uint256",
          "name": "deadline",
          "type": "uint256"
        },
        {
          "internalType": "bool",
          "name": "approveMax",
          "type": "bool"
        },
        {
          "internalType": "uint8",
          "name": "v",
          "type": "uint8"
        },
        {
          "internalType": "bytes32",
          "name": "r",
          "type": "bytes32"
        },
        {
          "internalType": "bytes32",
          "name": "s",
          "type": "bytes32"
        }
      ],
      "name": "removeLiquidityETHWithPermitSupportingFeeOnTransferTokens",
      "outputs": [
        {
          "internalType": "uint256",
          "name": "amountETH",
          "type": "uint256"
        }
      ],
      "stateMutability": "nonpayable",
      "type": "function"
    },
    {
      "inputs": [
        {
          "internalType": "address",
          "name": "tokenA",
          "type": "address"
        },
        {
          "internalType": "address",
          "name": "tokenB",
          "type": "address"
        },
        {
          "internalType": "uint256",
          "name": "liquidity",
          "type": "uint256"
        },
        {
          "internalType": "uint256",
          "name": "amountAMin",
          "type": "uint256"
        },
        {
          "internalType": "uint256",
          "name": "amountBMin",
          "type": "uint256"
        },
        {
          "internalType": "address",
          "name": "to",
          "type": "address"
        },
        {
          "internalType": "uint256",
          "name": "deadline",
          "type": "uint256"
        },
        {
          "internalType": "bool",
          "name": "approveMax",
          "type": "bool"
        },
        {
          "internalType": "uint8",
          "name": "v",
          "type": "uint8"
        },
        {
          "internalType": "bytes32",
          "name": "r",
          "type": "bytes32"
        },
        {
          "internalType": "bytes32",
          "name": "s",
          "type": "bytes32"
        }
      ],
      "name": "removeLiquidityWithPermit",
      "outputs": [
        {
          "internalType": "uint256",
          "name": "amountA",
          "type": "uint256"
        },
        {
          "internalType": "uint256",
          "name": "amountB",
          "type": "uint256"
        }
      ],
      "stateMutability": "nonpayable",
      "type": "function"
    },
    {
      "inputs": [
        {
          "internalType": "uint256",
          "name": "amountOut",
          "type": "uint256"
        },
        {
          "internalType": "address[]",
          "name": "path",
          "type": "address[]"
        },
        {
          "internalType": "address",
          "name": "to",
          "type": "address"
        },
        {
          "internalType": "uint256",
          "name": "deadline",
          "type": "uint256"
        },
        {
          "internalType": "address",
          "name": "referrer",
          "type": "address"
        }
      ],
      "name": "swapETHForExactTokens",
      "outputs": [
        {
          "internalType": "uint256[]",
          "name": "amounts",
          "type": "uint256[]"
        }
      ],
      "stateMutability": "payable",
      "type": "function"
    },
    {
      "inputs": [
        {
          "internalType": "uint256",
          "name": "amountOutMin",
          "type": "uint256"
        },
        {
          "internalType": "address[]",
          "name": "path",
          "type": "address[]"
        },
        {
          "internalType": "address",
          "name": "to",
          "type": "address"
        },
        {
          "internalType": "uint256",
          "name": "deadline",
          "type": "uint256"
        },
        {
          "internalType": "address",
          "name": "referrer",
          "type": "address"
        }
      ],
      "name": "swapExactETHForTokens",
      "outputs": [
        {
          "internalType": "uint256[]",
          "name": "amounts",
          "type": "uint256[]"
        }
      ],
      "stateMutability": "payable",
      "type": "function"
    },
    {
      "inputs": [
        {
          "internalType": "uint256",
          "name": "amountOutMin",
          "type": "uint256"
        },
        {
          "internalType": "address[]",
          "name": "path",
          "type": "address[]"
        },
        {
          "internalType": "address",
          "name": "to",
          "type": "address"
        },
        {
          "internalType": "uint256",
          "name": "deadline",
          "type": "uint256"
        },
        {
          "internalType": "address",
          "name": "referrer",
          "type": "address"
        }
      ],
      "name": "swapExactETHForTokensSupportingFeeOnTransferTokens",
      "outputs": [],
      "stateMutability": "payable",
      "type": "function"
    },
    {
      "inputs": [
        {
          "internalType": "uint256",
          "name": "amountIn",
          "type": "uint256"
        },
        {
          "internalType": "uint256",
          "name": "amountOutMin",
          "type": "uint256"
        },
        {
          "internalType": "address[]",
          "name": "path",
          "type": "address[]"
        },
        {
          "internalType": "address",
          "name": "to",
          "type": "address"
        },
        {
          "internalType": "uint256",
          "name": "deadline",
          "type": "uint256"
        },
        {
          "internalType": "address",
          "name": "referrer",
          "type": "address"
        }
      ],
      "name": "swapExactTokensForETH",
      "outputs": [
        {
          "internalType": "uint256[]",
          "name": "amounts",
          "type": "uint256[]"
        }
      ],
      "stateMutability": "nonpayable",
      "type": "function"
    },
    {
      "inputs": [
        {
          "internalType": "uint256",
          "name": "amountIn",
          "type": "uint256"
        },
        {
          "internalType": "uint256",
          "name": "amountOutMin",
          "type": "uint256"
        },
        {
          "internalType": "address[]",
          "name": "path",
          "type": "address[]"
        },
        {
          "internalType": "address",
          "name": "to",
          "type": "address"
        },
        {
          "internalType": "uint256",
          "name": "deadline",
          "type": "uint256"
        },
        {
          "internalType": "address",
          "name": "referrer",
          "type": "address"
        }
      ],
      "name": "swapExactTokensForETHSupportingFeeOnTransferTokens",
      "outputs": [],
      "stateMutability": "nonpayable",
      "type": "function"
    },
    {
      "inputs": [
        {
          "internalType": "uint256",
          "name": "amountIn",
          "type": "uint256"
        },
        {
          "internalType": "uint256",
          "name": "amountOutMin",
          "type": "uint256"
        },
        {
          "internalType": "address[]",
          "name": "path",
          "type": "address[]"
        },
        {
          "internalType": "address",
          "name": "to",
          "type": "address"
        },
        {
          "internalType": "uint256",
          "name": "deadline",
          "type": "uint256"
        },
        {
          "internalType": "address",
          "name": "referrer",
          "type": "address"
        }
      ],
      "name": "swapExactTokensForTokens",
      "outputs": [
        {
          "internalType": "uint256[]",
          "name": "amounts",
          "type": "uint256[]"
        }
      ],
      "stateMutability": "nonpayable",
      "type": "function"
    },
    {
      "inputs": [
        {
          "internalType": "uint256",
          "name": "amountIn",
          "type": "uint256"
        },
        {
          "internalType": "uint256",
          "name": "amountOutMin",
          "type": "uint256"
        },
        {
          "internalType": "address[]",
          "name": "path",
          "type": "address[]"
        },
        {
          "internalType": "address",
          "name": "to",
          "type": "address"
        },
        {
          "internalType": "uint256",
          "name": "deadline",
          "type": "uint256"
        },
        {
          "internalType": "address",
          "name": "referrer",
          "type": "address"
        }
      ],
      "name": "swapExactTokensForTokensSupportingFeeOnTransferTokens",
      "outputs": [],
      "stateMutability": "nonpayable",
      "type": "function"
    },
    {
      "inputs": [
        {
          "internalType": "uint256",
          "name": "amountOut",
          "type": "uint256"
        },
        {
          "internalType": "uint256",
          "name": "amountInMax",
          "type": "uint256"
        },
        {
          "internalType": "address[]",
          "name": "path",
          "type": "address[]"
        },
        {
          "internalType": "address",
          "name": "to",
          "type": "address"
        },
        {
          "internalType": "uint256",
          "name": "deadline",
          "type": "uint256"
        },
        {
          "internalType": "address",
          "name": "referrer",
          "type": "address"
        }
      ],
      "name": "swapTokensForExactETH",
      "outputs": [
        {
          "internalType": "uint256[]",
          "name": "amounts",
          "type": "uint256[]"
        }
      ],
      "stateMutability": "nonpayable",
      "type": "function"
    },
    {
      "inputs": [
        {
          "internalType": "uint256",
          "name": "amountOut",
          "type": "uint256"
        },
        {
          "internalType": "uint256",
          "name": "amountInMax",
          "type": "uint256"
        },
        {
          "internalType": "address[]",
          "name": "path",
          "type": "address[]"
        },
        {
          "internalType": "address",
          "name": "to",
          "type": "address"
        },
        {
          "internalType": "uint256",
          "name": "deadline",
          "type": "uint256"
        },
        {
          "internalType": "address",
          "name": "referrer",
          "type": "address"
        }
      ],
      "name": "swapTokensForExactTokens",
      "outputs": [
        {
          "internalType": "uint256[]",
          "name": "amounts",
          "type": "uint256[]"
        }
      ],
      "stateMutability": "nonpayable",
      "type": "function"
    },
    {
      "stateMutability": "payable",
      "type": "receive"
    }
  ],
  "bytecode": "0x60c060405234801561001057600080fd5b5060405162004aa638038062004aa68339818101604052604081101561003557600080fd5b5080516020909101516001600160601b0319606092831b8116608052911b1660a05260805160601c60a05160601c614912620001946000398061015f5280610d535280610d8e52806110695280611107528061117b52806115b4528061174d528061184952806119955280611a1d5280611bd65280611d255280611dad5280611f255280612051528061212b52806121db5280612317528061236d52806123a1528061241552806125b95280612b155280612b905280612c445280612f8b525080610e895280610f6052806111ad528061143b5280611474528061164b52806118e55280611a4f5280611c725280611ddf5280611fdd52806121b9528061234b52806126505280612748528061286052806129345280612a425280612d185280612f105280612f395280612f6952806135595280613a885280613acb5280613c675280613ddd52806140aa5280614163528061421652506149126000f3fe60806040526004361061014f5760003560e01c806385f8c259116100b6578063af2979eb1161006f578063af2979eb14610a79578063baa2abde14610acc578063c45a015514610b29578063d06ca61f14610b3e578063ded9382a14610bf3578063f824f62e14610c6657610188565b806385f8c2591461082f578063962efddb14610865578063a32166ee14610905578063a648ec7a146109a5578063ad5c464814610a12578063ad615dec14610a4357610188565b80632232ea43116101085780632232ea43146104f25780632f100e4a14610592578063344933be146106205780633d0e3ec5146106ae5780635b0d59841461074e57806370629c89146107c157610188565b806302751cec1461018d578063054d50d4146101f957806305a1450d14610241578063088890dc146103315780631f00ca74146103bf5780632195995c1461047457610188565b3661018857336001600160a01b037f0000000000000000000000000000000000000000000000000000000000000000161461018657fe5b005b600080fd5b34801561019957600080fd5b506101e0600480360360c08110156101b057600080fd5b506001600160a01b0381358116916020810135916040820135916060810135916080820135169060a00135610d06565b6040805192835260208301919091528051918290030190f35b34801561020557600080fd5b5061022f6004803603606081101561021c57600080fd5b5080359060208101359060400135610e20565b60408051918252519081900360200190f35b34801561024d57600080fd5b506102e1600480360360c081101561026457600080fd5b813591602081013591810190606081016040820135600160201b81111561028a57600080fd5b82018360208201111561029c57600080fd5b803590602001918460208302840111600160201b831117156102bd57600080fd5b91935091506001600160a01b03813581169160208101359160409091013516610e35565b60408051602080825283518183015283519192839290830191858101910280838360005b8381101561031d578181015183820152602001610305565b505050509050019250505060405180910390f35b610186600480360360a081101561034757600080fd5b81359190810190604081016020820135600160201b81111561036857600080fd5b82018360208201111561037a57600080fd5b803590602001918460208302840111600160201b8311171561039b57600080fd5b91935091506001600160a01b03813581169160208101359160409091013516611023565b3480156103cb57600080fd5b506102e1600480360360408110156103e257600080fd5b81359190810190604081016020820135600160201b81111561040357600080fd5b82018360208201111561041557600080fd5b803590602001918460208302840111600160201b8311171561043657600080fd5b919080806020026020016040519081016040528093929190818152602001838360200280828437600092019190915250929550611434945050505050565b34801561048057600080fd5b506101e0600480360361016081101561049857600080fd5b506001600160a01b038135811691602081013582169160408201359160608101359160808201359160a08101359091169060c08101359060e081013515159060ff610100820135169061012081013590610140013561146a565b3480156104fe57600080fd5b506102e1600480360360c081101561051557600080fd5b813591602081013591810190606081016040820135600160201b81111561053b57600080fd5b82018360208201111561054d57600080fd5b803590602001918460208302840111600160201b8311171561056e57600080fd5b91935091506001600160a01b03813581169160208101359160409091013516611564565b6102e1600480360360a08110156105a857600080fd5b81359190810190604081016020820135600160201b8111156105c957600080fd5b8201836020820111156105db57600080fd5b803590602001918460208302840111600160201b831117156105fc57600080fd5b91935091506001600160a01b03813581169160208101359160409091013516611801565b6102e1600480360360a081101561063657600080fd5b81359190810190604081016020820135600160201b81111561065757600080fd5b82018360208201111561066957600080fd5b803590602001918460208302840111600160201b8311171561068a57600080fd5b91935091506001600160a01b03813581169160208101359160409091013516611b8e565b3480156106ba57600080fd5b50610186600480360360c08110156106d157600080fd5b813591602081013591810190606081016040820135600160201b8111156106f757600080fd5b82018360208201111561070957600080fd5b803590602001918460208302840111600160201b8311171561072a57600080fd5b91935091506001600160a01b03813581169160208101359160409091013516611ed7565b34801561075a57600080fd5b5061022f600480360361014081101561077257600080fd5b506001600160a01b0381358116916020810135916040820135916060810135916080820135169060a08101359060c081013515159060ff60e082013516906101008101359061012001356121b1565b610811600480360360e08110156107d757600080fd5b506001600160a01b038135811691602081013591604082013591606081013591608082013581169160a08101359160c090910135166122bf565b60408051938452602084019290925282820152519081900360600190f35b34801561083b57600080fd5b5061022f6004803603606081101561085257600080fd5b508035906020810135906040013561255c565b34801561087157600080fd5b506102e1600480360360c081101561088857600080fd5b813591602081013591810190606081016040820135600160201b8111156108ae57600080fd5b8201836020820111156108c057600080fd5b803590602001918460208302840111600160201b831117156108e157600080fd5b91935091506001600160a01b03813581169160208101359160409091013516612569565b34801561091157600080fd5b506102e1600480360360c081101561092857600080fd5b813591602081013591810190606081016040820135600160201b81111561094e57600080fd5b82018360208201111561096057600080fd5b803590602001918460208302840111600160201b8311171561098157600080fd5b91935091506001600160a01b038135811691602081013591604090910135166126fe565b3480156109b157600080fd5b5061081160048036036101208110156109c957600080fd5b506001600160a01b038135811691602081013582169160408201359160608101359160808201359160a08101359160c082013581169160e08101359161010090910135166129d6565b348015610a1e57600080fd5b50610a27612b13565b604080516001600160a01b039092168252519081900360200190f35b348015610a4f57600080fd5b5061022f60048036036060811015610a6657600080fd5b5080359060208101359060400135612b37565b348015610a8557600080fd5b5061022f600480360360c0811015610a9c57600080fd5b506001600160a01b0381358116916020810135916040820135916060810135916080820135169060a00135612b44565b348015610ad857600080fd5b506101e0600480360360e0811015610aef57600080fd5b506001600160a01b038135811691602081013582169160408201359160608101359160808201359160a08101359091169060c00135612cca565b348015610b3557600080fd5b50610a27612f0e565b348015610b4a57600080fd5b506102e160048036036040811015610b6157600080fd5b81359190810190604081016020820135600160201b811115610b8257600080fd5b820183602082011115610b9457600080fd5b803590602001918460208302840111600160201b83111715610bb557600080fd5b919080806020026020016040519081016040528093929190818152602001838360200280828437600092019190915250929550612f32945050505050565b348015610bff57600080fd5b506101e06004803603610140811015610c1757600080fd5b506001600160a01b0381358116916020810135916040820135916060810135916080820135169060a08101359060c081013515159060ff60e08201351690610100810135906101200135612f5f565b348015610c7257600080fd5b50610186600480360360c0811015610c8957600080fd5b813591602081013591810190606081016040820135600160201b811115610caf57600080fd5b820183602082011115610cc157600080fd5b803590602001918460208302840111600160201b83111715610ce257600080fd5b91935091506001600160a01b03813581169160208101359160409091013516613073565b6000808242811015610d4d576040805162461bcd60e51b81526020600482015260166024820152600080516020614775833981519152604482015290519081900360640190fd5b610d7c897f00000000000000000000000000000000000000000000000000000000000000008a8a8a308a612cca565b9093509150610d8c89868561321b565b7f00000000000000000000000000000000000000000000000000000000000000006001600160a01b0316632e1a7d4d836040518263ffffffff1660e01b815260040180828152602001915050600060405180830381600087803b158015610df257600080fd5b505af1158015610e06573d6000803e3d6000fd5b50505050610e148583613385565b50965096945050505050565b6000610e2d84848461347d565b949350505050565b60608242811015610e7b576040805162461bcd60e51b81526020600482015260166024820152600080516020614775833981519152604482015290519081900360640190fd5b610e8483613555565b610ee27f00000000000000000000000000000000000000000000000000000000000000008a89898080602002602001604051908101604052809392919081815260200183836020028082843760009201919091525061367092505050565b91508782600184510381518110610ef557fe5b60200260200101511015610f3a5760405162461bcd60e51b81526004018080602001828103825260298152602001806147016029913960400191505060405180910390fd5b610fd887876000818110610f4a57fe5b905060200201356001600160a01b031633610fbe7f00000000000000000000000000000000000000000000000000000000000000008b8b6000818110610f8c57fe5b905060200201356001600160a01b03168c8c6001818110610fa957fe5b905060200201356001600160a01b03166137bc565b85600081518110610fcb57fe5b602002602001015161387c565b611017828888808060200260200160405190810160405280939291908181526020018383602002808284376000920191909152508a92506139d9915050565b50979650505050505050565b8142811015611067576040805162461bcd60e51b81526020600482015260166024820152600080516020614775833981519152604482015290519081900360640190fd5b7f00000000000000000000000000000000000000000000000000000000000000006001600160a01b03168686600081811061109e57fe5b905060200201356001600160a01b03166001600160a01b0316146110f7576040805162461bcd60e51b815260206004820152601b60248201526000805160206147e8833981519152604482015290519081900360640190fd5b61110082613555565b60003490507f00000000000000000000000000000000000000000000000000000000000000006001600160a01b031663d0e30db0826040518263ffffffff1660e01b81526004016000604051808303818588803b15801561116057600080fd5b505af1158015611174573d6000803e3d6000fd5b50505050507f00000000000000000000000000000000000000000000000000000000000000006001600160a01b031663a9059cbb6111f67f00000000000000000000000000000000000000000000000000000000000000008a8a60008181106111d957fe5b905060200201356001600160a01b03168b8b6001818110610fa957fe5b836040518363ffffffff1660e01b815260040180836001600160a01b0316815260200182815260200192505050602060405180830381600087803b15801561123d57600080fd5b505af1158015611251573d6000803e3d6000fd5b505050506040513d602081101561126757600080fd5b505161126f57fe5b60008787600019810181811061128157fe5b905060200201356001600160a01b03166001600160a01b03166370a08231876040518263ffffffff1660e01b815260040180826001600160a01b0316815260200191505060206040518083038186803b1580156112dd57600080fd5b505afa1580156112f1573d6000803e3d6000fd5b505050506040513d602081101561130757600080fd5b50516040805160208a810282810182019093528a82529293506113499290918b918b9182918501908490808284376000920191909152508a9250613c10915050565b886113ec828a8a600019810181811061135e57fe5b905060200201356001600160a01b03166001600160a01b03166370a082318a6040518263ffffffff1660e01b815260040180826001600160a01b0316815260200191505060206040518083038186803b1580156113ba57600080fd5b505afa1580156113ce573d6000803e3d6000fd5b505050506040513d60208110156113e457600080fd5b505190613f12565b10156114295760405162461bcd60e51b81526004018080602001828103825260298152602001806147016029913960400191505060405180910390fd5b505050505050505050565b60606114617f00000000000000000000000000000000000000000000000000000000000000008484613f62565b90505b92915050565b600080600061149a7f00000000000000000000000000000000000000000000000000000000000000008f8f6137bc565b90506000876114a9578c6114ad565b6000195b6040805163d505accf60e01b815233600482015230602482015260448101839052606481018c905260ff8a16608482015260a4810189905260c4810188905290519192506001600160a01b0384169163d505accf9160e48082019260009290919082900301818387803b15801561152357600080fd5b505af1158015611537573d6000803e3d6000fd5b5050505061154a8f8f8f8f8f8f8f612cca565b809450819550505050509b509b9950505050505050505050565b606082428110156115aa576040805162461bcd60e51b81526020600482015260166024820152600080516020614775833981519152604482015290519081900360640190fd5b6001600160a01b037f000000000000000000000000000000000000000000000000000000000000000016878760001981018181106115e457fe5b905060200201356001600160a01b03166001600160a01b03161461163d576040805162461bcd60e51b815260206004820152601b60248201526000805160206147e8833981519152604482015290519081900360640190fd5b61164683613555565b6116a47f00000000000000000000000000000000000000000000000000000000000000008a89898080602002602001604051908101604052809392919081815260200183836020028082843760009201919091525061367092505050565b915087826001845103815181106116b757fe5b602002602001015110156116fc5760405162461bcd60e51b81526004018080602001828103825260298152602001806147016029913960400191505060405180910390fd5b61170c87876000818110610f4a57fe5b61174b828888808060200260200160405190810160405280939291908181526020018383602002808284376000920191909152503092506139d9915050565b7f00000000000000000000000000000000000000000000000000000000000000006001600160a01b0316632e1a7d4d8360018551038151811061178a57fe5b60200260200101516040518263ffffffff1660e01b815260040180828152602001915050600060405180830381600087803b1580156117c857600080fd5b505af11580156117dc573d6000803e3d6000fd5b5050505061101785836001855103815181106117f457fe5b6020026020010151613385565b60608242811015611847576040805162461bcd60e51b81526020600482015260166024820152600080516020614775833981519152604482015290519081900360640190fd5b7f00000000000000000000000000000000000000000000000000000000000000006001600160a01b03168787600081811061187e57fe5b905060200201356001600160a01b03166001600160a01b0316146118d7576040805162461bcd60e51b815260206004820152601b60248201526000805160206147e8833981519152604482015290519081900360640190fd5b6118e083613555565b61193e7f000000000000000000000000000000000000000000000000000000000000000089898980806020026020016040519081016040528093929190818152602001838360200280828437600092019190915250613f6292505050565b9150348260008151811061194e57fe5b602002602001015111156119935760405162461bcd60e51b815260040180806020018281038252602581526020018061472a6025913960400191505060405180910390fd5b7f00000000000000000000000000000000000000000000000000000000000000006001600160a01b031663d0e30db0836000815181106119cf57fe5b60200260200101516040518263ffffffff1660e01b81526004016000604051808303818588803b158015611a0257600080fd5b505af1158015611a16573d6000803e3d6000fd5b50505050507f00000000000000000000000000000000000000000000000000000000000000006001600160a01b031663a9059cbb611a7b7f00000000000000000000000000000000000000000000000000000000000000008a8a60008181106111d957fe5b84600081518110611a8857fe5b60200260200101516040518363ffffffff1660e01b815260040180836001600160a01b0316815260200182815260200192505050602060405180830381600087803b158015611ad657600080fd5b505af1158015611aea573d6000803e3d6000fd5b505050506040513d6020811015611b0057600080fd5b5051611b0857fe5b611b47828888808060200260200160405190810160405280939291908181526020018383602002808284376000920191909152508a92506139d9915050565b81600081518110611b5457fe5b6020026020010151341115611b8357611b833383600081518110611b7457fe5b60200260200101513403613385565b509695505050505050565b60608242811015611bd4576040805162461bcd60e51b81526020600482015260166024820152600080516020614775833981519152604482015290519081900360640190fd5b7f00000000000000000000000000000000000000000000000000000000000000006001600160a01b031687876000818110611c0b57fe5b905060200201356001600160a01b03166001600160a01b031614611c64576040805162461bcd60e51b815260206004820152601b60248201526000805160206147e8833981519152604482015290519081900360640190fd5b611c6d83613555565b611ccb7f00000000000000000000000000000000000000000000000000000000000000003489898080602002602001604051908101604052809392919081815260200183836020028082843760009201919091525061367092505050565b91508782600184510381518110611cde57fe5b60200260200101511015611d235760405162461bcd60e51b81526004018080602001828103825260298152602001806147016029913960400191505060405180910390fd5b7f00000000000000000000000000000000000000000000000000000000000000006001600160a01b031663d0e30db083600081518110611d5f57fe5b60200260200101516040518263ffffffff1660e01b81526004016000604051808303818588803b158015611d9257600080fd5b505af1158015611da6573d6000803e3d6000fd5b50505050507f00000000000000000000000000000000000000000000000000000000000000006001600160a01b031663a9059cbb611e0b7f00000000000000000000000000000000000000000000000000000000000000008a8a60008181106111d957fe5b84600081518110611e1857fe5b60200260200101516040518363ffffffff1660e01b815260040180836001600160a01b0316815260200182815260200192505050602060405180830381600087803b158015611e6657600080fd5b505af1158015611e7a573d6000803e3d6000fd5b505050506040513d6020811015611e9057600080fd5b5051611e9857fe5b611b83828888808060200260200160405190810160405280939291908181526020018383602002808284376000920191909152508a92506139d9915050565b8142811015611f1b576040805162461bcd60e51b81526020600482015260166024820152600080516020614775833981519152604482015290519081900360640190fd5b6001600160a01b037f00000000000000000000000000000000000000000000000000000000000000001686866000198101818110611f5557fe5b905060200201356001600160a01b03166001600160a01b031614611fae576040805162461bcd60e51b815260206004820152601b60248201526000805160206147e8833981519152604482015290519081900360640190fd5b611fb782613555565b61200f86866000818110611fc757fe5b905060200201356001600160a01b0316336120097f00000000000000000000000000000000000000000000000000000000000000008a8a60008181106111d957fe5b8b61387c565b61204d868680806020026020016040519081016040528093929190818152602001838360200280828437600092019190915250309250613c10915050565b60007f00000000000000000000000000000000000000000000000000000000000000006001600160a01b03166370a08231306040518263ffffffff1660e01b815260040180826001600160a01b0316815260200191505060206040518083038186803b1580156120bc57600080fd5b505afa1580156120d0573d6000803e3d6000fd5b505050506040513d60208110156120e657600080fd5b50519050878110156121295760405162461bcd60e51b81526004018080602001828103825260298152602001806147016029913960400191505060405180910390fd5b7f00000000000000000000000000000000000000000000000000000000000000006001600160a01b0316632e1a7d4d826040518263ffffffff1660e01b815260040180828152602001915050600060405180830381600087803b15801561218f57600080fd5b505af11580156121a3573d6000803e3d6000fd5b505050506114298582613385565b6000806121ff7f00000000000000000000000000000000000000000000000000000000000000008d7f00000000000000000000000000000000000000000000000000000000000000006137bc565b905060008661220e578b612212565b6000195b6040805163d505accf60e01b815233600482015230602482015260448101839052606481018b905260ff8916608482015260a4810188905260c4810187905290519192506001600160a01b0384169163d505accf9160e48082019260009290919082900301818387803b15801561228857600080fd5b505af115801561229c573d6000803e3d6000fd5b505050506122ae8d8d8d8d8d8d612b44565b9d9c50505050505050505050505050565b60008060008442811015612308576040805162461bcd60e51b81526020600482015260166024820152600080516020614775833981519152604482015290519081900360640190fd5b61231185613555565b61233f8b7f00000000000000000000000000000000000000000000000000000000000000008c348d8d61409a565b909450925060006123917f00000000000000000000000000000000000000000000000000000000000000008d7f00000000000000000000000000000000000000000000000000000000000000006137bc565b905061239f8c33838861387c565b7f00000000000000000000000000000000000000000000000000000000000000006001600160a01b031663d0e30db0856040518263ffffffff1660e01b81526004016000604051808303818588803b1580156123fa57600080fd5b505af115801561240e573d6000803e3d6000fd5b50505050507f00000000000000000000000000000000000000000000000000000000000000006001600160a01b031663a9059cbb82866040518363ffffffff1660e01b815260040180836001600160a01b0316815260200182815260200192505050602060405180830381600087803b15801561248a57600080fd5b505af115801561249e573d6000803e3d6000fd5b505050506040513d60208110156124b457600080fd5b50516124bc57fe5b806001600160a01b0316636a627842896040518263ffffffff1660e01b815260040180826001600160a01b03168152602001915050602060405180830381600087803b15801561250b57600080fd5b505af115801561251f573d6000803e3d6000fd5b505050506040513d602081101561253557600080fd5b505192503484101561254d5761254d33853403613385565b50509750975097945050505050565b6000610e2d84848461432b565b606082428110156125af576040805162461bcd60e51b81526020600482015260166024820152600080516020614775833981519152604482015290519081900360640190fd5b6001600160a01b037f000000000000000000000000000000000000000000000000000000000000000016878760001981018181106125e957fe5b905060200201356001600160a01b03166001600160a01b031614612642576040805162461bcd60e51b815260206004820152601b60248201526000805160206147e8833981519152604482015290519081900360640190fd5b61264b83613555565b6126a97f00000000000000000000000000000000000000000000000000000000000000008a898980806020026020016040519081016040528093929190818152602001838360200280828437600092019190915250613f6292505050565b915087826000815181106126b957fe5b602002602001015111156116fc5760405162461bcd60e51b815260040180806020018281038252602581526020018061472a6025913960400191505060405180910390fd5b60608242811015612744576040805162461bcd60e51b81526020600482015260166024820152600080516020614775833981519152604482015290519081900360640190fd5b60007f00000000000000000000000000000000000000000000000000000000000000006001600160a01b0316631441a5a96040518163ffffffff1660e01b815260040160206040518083038186803b15801561279f57600080fd5b505afa1580156127b3573d6000803e3d6000fd5b505050506040513d60208110156127c957600080fd5b505190506001600160a01b0381161561285b5760408051632a99dcd560e21b81523360048201526001600160a01b03868116602483015291519183169163aa677354916044808201926020929091908290030181600087803b15801561282e57600080fd5b505af1158015612842573d6000803e3d6000fd5b505050506040513d602081101561285857600080fd5b50505b6128b97f00000000000000000000000000000000000000000000000000000000000000008b8a8a80806020026020016040519081016040528093929190818152602001838360200280828437600092019190915250613f6292505050565b925088836000815181106128c957fe5b6020026020010151111561290e5760405162461bcd60e51b815260040180806020018281038252602581526020018061472a6025913960400191505060405180910390fd5b61298a8888600081811061291e57fe5b905060200201356001600160a01b03163361297d7f00000000000000000000000000000000000000000000000000000000000000008c8c600081811061296057fe5b905060200201356001600160a01b03168d8d6001818110610fa957fe5b86600081518110610fcb57fe5b6129c9838989808060200260200160405190810160405280939291908181526020018383602002808284376000920191909152508b92506139d9915050565b5050979650505050505050565b60008060008442811015612a1f576040805162461bcd60e51b81526020600482015260166024820152600080516020614775833981519152604482015290519081900360640190fd5b612a2885613555565b612a368d8d8d8d8d8d61409a565b90945092506000612a687f00000000000000000000000000000000000000000000000000000000000000008f8f6137bc565b9050612a768e33838861387c565b612a828d33838761387c565b806001600160a01b0316636a627842896040518263ffffffff1660e01b815260040180826001600160a01b03168152602001915050602060405180830381600087803b158015612ad157600080fd5b505af1158015612ae5573d6000803e3d6000fd5b505050506040513d6020811015612afb57600080fd5b5051949e939d50939b50919950505050505050505050565b7f000000000000000000000000000000000000000000000000000000000000000081565b6000610e2d848484614403565b60008142811015612b8a576040805162461bcd60e51b81526020600482015260166024820152600080516020614775833981519152604482015290519081900360640190fd5b612bb9887f00000000000000000000000000000000000000000000000000000000000000008989893089612cca565b905080925050612c4288858a6001600160a01b03166370a08231306040518263ffffffff1660e01b815260040180826001600160a01b0316815260200191505060206040518083038186803b158015612c1157600080fd5b505afa158015612c25573d6000803e3d6000fd5b505050506040513d6020811015612c3b57600080fd5b505161321b565b7f00000000000000000000000000000000000000000000000000000000000000006001600160a01b0316632e1a7d4d836040518263ffffffff1660e01b815260040180828152602001915050600060405180830381600087803b158015612ca857600080fd5b505af1158015612cbc573d6000803e3d6000fd5b50505050611b838483613385565b6000808242811015612d11576040805162461bcd60e51b81526020600482015260166024820152600080516020614775833981519152604482015290519081900360640190fd5b6000612d3e7f00000000000000000000000000000000000000000000000000000000000000008c8c6137bc565b604080516323b872dd60e01b81523360048201526001600160a01b03831660248201819052604482018d9052915192935090916323b872dd916064808201926020929091908290030181600087803b158015612d9957600080fd5b505af1158015612dad573d6000803e3d6000fd5b505050506040513d6020811015612dc357600080fd5b50506040805163226bf2d160e21b81526001600160a01b03888116600483015282516000938493928616926389afcb44926024808301939282900301818787803b158015612e1057600080fd5b505af1158015612e24573d6000803e3d6000fd5b505050506040513d6040811015612e3a57600080fd5b50805160209091015190925090506000612e548e8e6144a9565b509050806001600160a01b03168e6001600160a01b031614612e77578183612e7a565b82825b90975095508a871015612ebe5760405162461bcd60e51b815260040180806020018281038252602481526020018061484e6024913960400191505060405180910390fd5b89861015612efd5760405162461bcd60e51b81526004018080602001828103825260248152602001806148b96024913960400191505060405180910390fd5b505050505097509795505050505050565b7f000000000000000000000000000000000000000000000000000000000000000081565b60606114617f00000000000000000000000000000000000000000000000000000000000000008484613670565b6000806000612faf7f00000000000000000000000000000000000000000000000000000000000000008e7f00000000000000000000000000000000000000000000000000000000000000006137bc565b9050600087612fbe578c612fc2565b6000195b6040805163d505accf60e01b815233600482015230602482015260448101839052606481018c905260ff8a16608482015260a4810189905260c4810188905290519192506001600160a01b0384169163d505accf9160e48082019260009290919082900301818387803b15801561303857600080fd5b505af115801561304c573d6000803e3d6000fd5b5050505061305e8e8e8e8e8e8e610d06565b909f909e509c50505050505050505050505050565b81428110156130b7576040805162461bcd60e51b81526020600482015260166024820152600080516020614775833981519152604482015290519081900360640190fd5b6130c082613555565b6130d086866000818110611fc757fe5b6000868660001981018181106130e257fe5b905060200201356001600160a01b03166001600160a01b03166370a08231866040518263ffffffff1660e01b815260040180826001600160a01b0316815260200191505060206040518083038186803b15801561313e57600080fd5b505afa158015613152573d6000803e3d6000fd5b505050506040513d602081101561316857600080fd5b505160408051602089810282810182019093528982529293506131aa9290918a918a918291850190849080828437600092019190915250899250613c10915050565b876113ec82898960001981018181106131bf57fe5b905060200201356001600160a01b03166001600160a01b03166370a08231896040518263ffffffff1660e01b815260040180826001600160a01b0316815260200191505060206040518083038186803b1580156113ba57600080fd5b604080516001600160a01b038481166024830152604480830185905283518084039091018152606490920183526020820180516001600160e01b031663a9059cbb60e01b178152925182516000946060949389169392918291908083835b602083106132985780518252601f199092019160209182019101613279565b6001836020036101000a0380198251168184511680821785525050505050509050019150506000604051808303816000865af19150503d80600081146132fa576040519150601f19603f3d011682016040523d82523d6000602084013e6132ff565b606091505b509150915081801561332d57508051158061332d575080806020019051602081101561332a57600080fd5b50515b61337e576040805162461bcd60e51b815260206004820152601f60248201527f5472616e7366657248656c7065723a205452414e534645525f4641494c454400604482015290519081900360640190fd5b5050505050565b604080516000808252602082019092526001600160a01b0384169083906040518082805190602001908083835b602083106133d15780518252601f1990920191602091820191016133b2565b6001836020036101000a03801982511681845116808217855250505050505090500191505060006040518083038185875af1925050503d8060008114613433576040519150601f19603f3d011682016040523d82523d6000602084013e613438565b606091505b50509050806134785760405162461bcd60e51b81526004018080602001828103825260238152602001806148086023913960400191505060405180910390fd5b505050565b60008084116134bd5760405162461bcd60e51b81526004018080602001828103825260298152602001806147956029913960400191505060405180910390fd5b6000831180156134cd5750600082115b6135085760405162461bcd60e51b815260040180806020018281038252602681526020018061474f6026913960400191505060405180910390fd5b6000613516856103e6614587565b905060006135248285614587565b9050600061353e83613538886103e8614587565b906145ea565b905080828161354957fe5b04979650505050505050565b60007f00000000000000000000000000000000000000000000000000000000000000006001600160a01b0316631441a5a96040518163ffffffff1660e01b815260040160206040518083038186803b1580156135b057600080fd5b505afa1580156135c4573d6000803e3d6000fd5b505050506040513d60208110156135da57600080fd5b505190506001600160a01b0381161561366c5760408051632a99dcd560e21b81523360048201526001600160a01b03848116602483015291519183169163aa677354916044808201926020929091908290030181600087803b15801561363f57600080fd5b505af1158015613653573d6000803e3d6000fd5b505050506040513d602081101561366957600080fd5b50505b5050565b60606002825110156136c9576040805162461bcd60e51b815260206004820152601c60248201527f4a756c737761704c6962726172793a20494e56414c49445f5041544800000000604482015290519081900360640190fd5b815167ffffffffffffffff811180156136e157600080fd5b5060405190808252806020026020018201604052801561370b578160200160208202803683370190505b509050828160008151811061371c57fe5b60200260200101818152505060005b60018351038110156137b45760008061376e8786858151811061374a57fe5b602002602001015187866001018151811061376157fe5b6020026020010151614639565b9150915061379084848151811061378157fe5b6020026020010151838361347d565b84846001018151811061379f57fe5b6020908102919091010152505060010161372b565b509392505050565b60008060006137cb85856144a9565b604080516bffffffffffffffffffffffff19606094851b811660208084019190915293851b81166034830152825160288184030181526048830184528051908501206001600160f81b031960688401529a90941b9093166069840152607d8301989098527f9c6bfe622cb522de663ce858e27aef21472a13b0cbc495a21563859e0fd2791a609d808401919091528851808403909101815260bd909201909752805196019590952095945050505050565b604080516001600160a01b0385811660248301528481166044830152606480830185905283518084039091018152608490920183526020820180516001600160e01b03166323b872dd60e01b17815292518251600094606094938a169392918291908083835b602083106139015780518252601f1990920191602091820191016138e2565b6001836020036101000a0380198251168184511680821785525050505050509050019150506000604051808303816000865af19150503d8060008114613963576040519150601f19603f3d011682016040523d82523d6000602084013e613968565b606091505b5091509150818015613996575080511580613996575080806020019051602081101561399357600080fd5b50515b6139d15760405162461bcd60e51b81526004018080602001828103825260248152602001806148956024913960400191505060405180910390fd5b505050505050565b60005b6001835103811015613669576000808483815181106139f757fe5b6020026020010151858460010181518110613a0e57fe5b6020026020010151915091506000613a2683836144a9565b5090506000878560010181518110613a3a57fe5b60200260200101519050600080836001600160a01b0316866001600160a01b031614613a6857826000613a6c565b6000835b91509150600060028a51038810613a835788613ac4565b613ac47f0000000000000000000000000000000000000000000000000000000000000000878c8b60020181518110613ab757fe5b60200260200101516137bc565b9050613af17f000000000000000000000000000000000000000000000000000000000000000088886137bc565b6001600160a01b031663022c0d9f84848460006040519080825280601f01601f191660200182016040528015613b2e576020820181803683370190505b506040518563ffffffff1660e01b815260040180858152602001848152602001836001600160a01b0316815260200180602001828103825283818151815260200191508051906020019080838360005b83811015613b96578181015183820152602001613b7e565b50505050905090810190601f168015613bc35780820380516001836020036101000a031916815260200191505b5095505050505050600060405180830381600087803b158015613be557600080fd5b505af1158015613bf9573d6000803e3d6000fd5b5050600190990198506139dc975050505050505050565b60005b600183510381101561347857600080848381518110613c2e57fe5b6020026020010151858460010181518110613c4557fe5b6020026020010151915091506000613c5d83836144a9565b5090506000613c8d7f000000000000000000000000000000000000000000000000000000000000000085856137bc565b9050600080600080846001600160a01b0316630902f1ac6040518163ffffffff1660e01b815260040160606040518083038186803b158015613cce57600080fd5b505afa158015613ce2573d6000803e3d6000fd5b505050506040513d6060811015613cf857600080fd5b5080516020909101516001600160701b0391821693501690506000806001600160a01b038a811690891614613d2e578284613d31565b83835b91509150613d86828b6001600160a01b03166370a082318a6040518263ffffffff1660e01b815260040180826001600160a01b0316815260200191505060206040518083038186803b1580156113ba57600080fd5b9550613d9386838361347d565b945050505050600080856001600160a01b0316886001600160a01b031614613dbd57826000613dc1565b6000835b91509150600060028c51038a10613dd8578a613e0c565b613e0c7f0000000000000000000000000000000000000000000000000000000000000000898e8d60020181518110613ab757fe5b604080516000808252602082019283905263022c0d9f60e01b835260248201878152604483018790526001600160a01b038086166064850152608060848501908152845160a48601819052969750908c169563022c0d9f958a958a958a9591949193919260c486019290918190849084905b83811015613e96578181015183820152602001613e7e565b50505050905090810190601f168015613ec35780820380516001836020036101000a031916815260200191505b5095505050505050600060405180830381600087803b158015613ee557600080fd5b505af1158015613ef9573d6000803e3d6000fd5b50506001909b019a50613c139950505050505050505050565b80820382811115611464576040805162461bcd60e51b815260206004820152601560248201527464732d6d6174682d7375622d756e646572666c6f7760581b604482015290519081900360640190fd5b6060600282511015613fbb576040805162461bcd60e51b815260206004820152601c60248201527f4a756c737761704c6962726172793a20494e56414c49445f5041544800000000604482015290519081900360640190fd5b815167ffffffffffffffff81118015613fd357600080fd5b50604051908082528060200260200182016040528015613ffd578160200160208202803683370190505b509050828160018351038151811061401157fe5b60209081029190910101528151600019015b80156137b4576000806140538786600186038151811061403f57fe5b602002602001015187868151811061376157fe5b9150915061407584848151811061406657fe5b6020026020010151838361432b565b84600185038151811061408457fe5b6020908102919091010152505060001901614023565b60008060006001600160a01b03167f00000000000000000000000000000000000000000000000000000000000000006001600160a01b031663e6a439058a8a6040518363ffffffff1660e01b815260040180836001600160a01b03168152602001826001600160a01b031681526020019250505060206040518083038186803b15801561412657600080fd5b505afa15801561413a573d6000803e3d6000fd5b505050506040513d602081101561415057600080fd5b50516001600160a01b0316141561420e577f00000000000000000000000000000000000000000000000000000000000000006001600160a01b031663c9c6539689896040518363ffffffff1660e01b815260040180836001600160a01b03168152602001826001600160a01b0316815260200192505050602060405180830381600087803b1580156141e157600080fd5b505af11580156141f5573d6000803e3d6000fd5b505050506040513d602081101561420b57600080fd5b50505b60008061423c7f00000000000000000000000000000000000000000000000000000000000000008b8b614639565b9150915081600014801561424e575080155b1561425e5787935086925061431e565b600061426b898484614403565b90508781116142be57858110156142b35760405162461bcd60e51b81526004018080602001828103825260248152602001806148b96024913960400191505060405180910390fd5b88945092508261431c565b60006142cb898486614403565b9050898111156142d757fe5b878110156143165760405162461bcd60e51b815260040180806020018281038252602481526020018061484e6024913960400191505060405180910390fd5b94508793505b505b5050965096945050505050565b600080841161436b5760405162461bcd60e51b815260040180806020018281038252602a8152602001806147be602a913960400191505060405180910390fd5b60008311801561437b5750600082115b6143b65760405162461bcd60e51b815260040180806020018281038252602681526020018061474f6026913960400191505060405180910390fd5b60006143ce6103e86143c88688614587565b90614587565b905060006143e26103e66143c88689613f12565b90506143f960018284816143f257fe5b04906145ea565b9695505050505050565b60008084116144435760405162461bcd60e51b81526004018080602001828103825260238152602001806148726023913960400191505060405180910390fd5b6000831180156144535750600082115b61448e5760405162461bcd60e51b815260040180806020018281038252602681526020018061474f6026913960400191505060405180910390fd5b826144998584614587565b816144a057fe5b04949350505050565b600080826001600160a01b0316846001600160a01b031614156144fd5760405162461bcd60e51b815260040180806020018281038252602381526020018061482b6023913960400191505060405180910390fd5b826001600160a01b0316846001600160a01b03161061451d578284614520565b83835b90925090506001600160a01b038216614580576040805162461bcd60e51b815260206004820152601c60248201527f4a756c737761704c6962726172793a205a45524f5f4144445245535300000000604482015290519081900360640190fd5b9250929050565b60008115806145a25750508082028282828161459f57fe5b04145b611464576040805162461bcd60e51b815260206004820152601460248201527364732d6d6174682d6d756c2d6f766572666c6f7760601b604482015290519081900360640190fd5b80820182811015611464576040805162461bcd60e51b815260206004820152601460248201527364732d6d6174682d6164642d6f766572666c6f7760601b604482015290519081900360640190fd5b600080600061464885856144a9565b5090506000806146598888886137bc565b6001600160a01b0316630902f1ac6040518163ffffffff1660e01b815260040160606040518083038186803b15801561469157600080fd5b505afa1580156146a5573d6000803e3d6000fd5b505050506040513d60608110156146bb57600080fd5b5080516020909101516001600160701b0391821693501690506001600160a01b03878116908416146146ee5780826146f1565b81815b9099909850965050505050505056fe4a756c73776170526f757465723a20494e53554646494349454e545f4f55545055545f414d4f554e544a756c73776170526f757465723a204558434553534956455f494e5055545f414d4f554e544a756c737761704c6962726172793a20494e53554646494349454e545f4c49515549444954594a756c73776170526f757465723a2045585049524544000000000000000000004a756c737761704c6962726172793a20494e53554646494349454e545f494e5055545f414d4f554e544a756c737761704c6962726172793a20494e53554646494349454e545f4f55545055545f414d4f554e544a756c73776170526f757465723a20494e56414c49445f5041544800000000005472616e7366657248656c7065723a204554485f5452414e534645525f4641494c45444a756c737761704c6962726172793a204944454e544943414c5f4144445245535345534a756c73776170526f757465723a20494e53554646494349454e545f415f414d4f554e544a756c737761704c6962726172793a20494e53554646494349454e545f414d4f554e545472616e7366657248656c7065723a205452414e534645525f46524f4d5f4641494c45444a756c73776170526f757465723a20494e53554646494349454e545f425f414d4f554e54a264697066735822122023d66259b9c7918aedd8aba32446128cb8c342bb26fc0dfab2817c74a595fbb064736f6c634300060c0033",
  "linkReferences": {},
  "deployedLinkReferences": {}
}